{"abi":[{"type":"constructor","inputs":[{"name":"initialOwner","type":"address","internalType":"address"}],"stateMutability":"nonpayable"},{"type":"function","name":"approve","inputs":[{"name":"to","type":"address","internalType":"address"},{"name":"tokenId","type":"uint256","internalType":"uint256"}],"outputs":[],"stateMutability":"nonpayable"},{"type":"function","name":"balanceOf","inputs":[{"name":"owner","type":"address","internalType":"address"}],"outputs":[{"name":"","type":"uint256","internalType":"uint256"}],"stateMutability":"view"},{"type":"function","name":"getApproved","inputs":[{"name":"tokenId","type":"uint256","internalType":"uint256"}],"outputs":[{"name":"","type":"address","internalType":"address"}],"stateMutability":"view"},{"type":"function","name":"getTokensOfOwner","inputs":[{"name":"owner","type":"address","internalType":"address"}],"outputs":[{"name":"","type":"uint256[]","internalType":"uint256[]"}],"stateMutability":"view"},{"type":"function","name":"isApprovedForAll","inputs":[{"name":"owner","type":"address","internalType":"address"},{"name":"operator","type":"address","internalType":"address"}],"outputs":[{"name":"","type":"bool","internalType":"bool"}],"stateMutability":"view"},{"type":"function","name":"name","inputs":[],"outputs":[{"name":"","type":"string","internalType":"string"}],"stateMutability":"view"},{"type":"function","name":"owner","inputs":[],"outputs":[{"name":"","type":"address","internalType":"address"}],"stateMutability":"view"},{"type":"function","name":"ownerOf","inputs":[{"name":"tokenId","type":"uint256","internalType":"uint256"}],"outputs":[{"name":"","type":"address","internalType":"address"}],"stateMutability":"view"},{"type":"function","name":"renounceOwnership","inputs":[],"outputs":[],"stateMutability":"nonpayable"},{"type":"function","name":"safeMint","inputs":[{"name":"to","type":"address","internalType":"address"}],"outputs":[{"name":"","type":"uint256","internalType":"uint256"}],"stateMutability":"nonpayable"},{"type":"function","name":"safeTransferFrom","inputs":[{"name":"from","type":"address","internalType":"address"},{"name":"to","type":"address","internalType":"address"},{"name":"tokenId","type":"uint256","internalType":"uint256"}],"outputs":[],"stateMutability":"nonpayable"},{"type":"function","name":"safeTransferFrom","inputs":[{"name":"from","type":"address","internalType":"address"},{"name":"to","type":"address","internalType":"address"},{"name":"tokenId","type":"uint256","internalType":"uint256"},{"name":"data","type":"bytes","internalType":"bytes"}],"outputs":[],"stateMutability":"nonpayable"},{"type":"function","name":"setApprovalForAll","inputs":[{"name":"operator","type":"address","internalType":"address"},{"name":"approved","type":"bool","internalType":"bool"}],"outputs":[],"stateMutability":"nonpayable"},{"type":"function","name":"supportsInterface","inputs":[{"name":"interfaceId","type":"bytes4","internalType":"bytes4"}],"outputs":[{"name":"","type":"bool","internalType":"bool"}],"stateMutability":"view"},{"type":"function","name":"symbol","inputs":[],"outputs":[{"name":"","type":"string","internalType":"string"}],"stateMutability":"view"},{"type":"function","name":"tokenByIndex","inputs":[{"name":"index","type":"uint256","internalType":"uint256"}],"outputs":[{"name":"","type":"uint256","internalType":"uint256"}],"stateMutability":"view"},{"type":"function","name":"tokenOfOwnerByIndex","inputs":[{"name":"owner","type":"address","internalType":"address"},{"name":"index","type":"uint256","internalType":"uint256"}],"outputs":[{"name":"","type":"uint256","internalType":"uint256"}],"stateMutability":"view"},{"type":"function","name":"tokenURI","inputs":[{"name":"tokenId","type":"uint256","internalType":"uint256"}],"outputs":[{"name":"","type":"string","internalType":"string"}],"stateMutability":"view"},{"type":"function","name":"totalSupply","inputs":[],"outputs":[{"name":"","type":"uint256","internalType":"uint256"}],"stateMutability":"view"},{"type":"function","name":"transferFrom","inputs":[{"name":"from","type":"address","internalType":"address"},{"name":"to","type":"address","internalType":"address"},{"name":"tokenId","type":"uint256","internalType":"uint256"}],"outputs":[],"stateMutability":"nonpayable"},{"type":"function","name":"transferOwnership","inputs":[{"name":"newOwner","type":"address","internalType":"address"}],"outputs":[],"stateMutability":"nonpayable"},{"type":"event","name":"Approval","inputs":[{"name":"owner","type":"address","indexed":true,"internalType":"address"},{"name":"approved","type":"address","indexed":true,"internalType":"address"},{"name":"tokenId","type":"uint256","indexed":true,"internalType":"uint256"}],"anonymous":false},{"type":"event","name":"ApprovalForAll","inputs":[{"name":"owner","type":"address","indexed":true,"internalType":"address"},{"name":"operator","type":"address","indexed":true,"internalType":"address"},{"name":"approved","type":"bool","indexed":false,"internalType":"bool"}],"anonymous":false},{"type":"event","name":"OwnershipTransferred","inputs":[{"name":"previousOwner","type":"address","indexed":true,"internalType":"address"},{"name":"newOwner","type":"address","indexed":true,"internalType":"address"}],"anonymous":false},{"type":"event","name":"Transfer","inputs":[{"name":"from","type":"address","indexed":true,"internalType":"address"},{"name":"to","type":"address","indexed":true,"internalType":"address"},{"name":"tokenId","type":"uint256","indexed":true,"internalType":"uint256"}],"anonymous":false},{"type":"error","name":"ERC721EnumerableForbiddenBatchMint","inputs":[]},{"type":"error","name":"ERC721IncorrectOwner","inputs":[{"name":"sender","type":"address","internalType":"address"},{"name":"tokenId","type":"uint256","internalType":"uint256"},{"name":"owner","type":"address","internalType":"address"}]},{"type":"error","name":"ERC721InsufficientApproval","inputs":[{"name":"operator","type":"address","internalType":"address"},{"name":"tokenId","type":"uint256","internalType":"uint256"}]},{"type":"error","name":"ERC721InvalidApprover","inputs":[{"name":"approver","type":"address","internalType":"address"}]},{"type":"error","name":"ERC721InvalidOperator","inputs":[{"name":"operator","type":"address","internalType":"address"}]},{"type":"error","name":"ERC721InvalidOwner","inputs":[{"name":"owner","type":"address","internalType":"address"}]},{"type":"error","name":"ERC721InvalidReceiver","inputs":[{"name":"receiver","type":"address","internalType":"address"}]},{"type":"error","name":"ERC721InvalidSender","inputs":[{"name":"sender","type":"address","internalType":"address"}]},{"type":"error","name":"ERC721NonexistentToken","inputs":[{"name":"tokenId","type":"uint256","internalType":"uint256"}]},{"type":"error","name":"ERC721OutOfBoundsIndex","inputs":[{"name":"owner","type":"address","internalType":"address"},{"name":"index","type":"uint256","internalType":"uint256"}]},{"type":"error","name":"OwnableInvalidOwner","inputs":[{"name":"owner","type":"address","internalType":"address"}]},{"type":"error","name":"OwnableUnauthorizedAccount","inputs":[{"name":"account","type":"address","internalType":"address"}]}],"bytecode":{"object":"0x608060405234801561000f575f5ffd5b50604051612e27380380612e2783398181016040528101906100319190610266565b806040518060400160405280600781526020017f4d79546f6b656e000000000000000000000000000000000000000000000000008152506040518060400160405280600381526020017f4d544b0000000000000000000000000000000000000000000000000000000000815250815f90816100ac91906104ce565b5080600190816100bc91906104ce565b5050505f73ffffffffffffffffffffffffffffffffffffffff168173ffffffffffffffffffffffffffffffffffffffff160361012f575f6040517f1e4fbdf700000000000000000000000000000000000000000000000000000000815260040161012691906105ac565b60405180910390fd5b61013e8161014560201b60201c565b50506105c5565b5f600a5f9054906101000a900473ffffffffffffffffffffffffffffffffffffffff16905081600a5f6101000a81548173ffffffffffffffffffffffffffffffffffffffff021916908373ffffffffffffffffffffffffffffffffffffffff1602179055508173ffffffffffffffffffffffffffffffffffffffff168173ffffffffffffffffffffffffffffffffffffffff167f8be0079c531659141344cd1fd0a4f28419497f9722a3daafe3b4186f6b6457e060405160405180910390a35050565b5f5ffd5b5f73ffffffffffffffffffffffffffffffffffffffff82169050919050565b5f6102358261020c565b9050919050565b6102458161022b565b811461024f575f5ffd5b50565b5f815190506102608161023c565b92915050565b5f6020828403121561027b5761027a610208565b5b5f61028884828501610252565b91505092915050565b5f81519050919050565b7f4e487b71000000000000000000000000000000000000000000000000000000005f52604160045260245ffd5b7f4e487b71000000000000000000000000000000000000000000000000000000005f52602260045260245ffd5b5f600282049050600182168061030c57607f821691505b60208210810361031f5761031e6102c8565b5b50919050565b5f819050815f5260205f209050919050565b5f6020601f8301049050919050565b5f82821b905092915050565b5f600883026103817fffffffffffffffffffffffffffffffffffffffffffffffffffffffffffffffff82610346565b61038b8683610346565b95508019841693508086168417925050509392505050565b5f819050919050565b5f819050919050565b5f6103cf6103ca6103c5846103a3565b6103ac565b6103a3565b9050919050565b5f819050919050565b6103e8836103b5565b6103fc6103f4826103d6565b848454610352565b825550505050565b5f5f905090565b610413610404565b61041e8184846103df565b505050565b5b81811015610441576104365f8261040b565b600181019050610424565b5050565b601f8211156104865761045781610325565b61046084610337565b8101602085101561046f578190505b61048361047b85610337565b830182610423565b50505b505050565b5f82821c905092915050565b5f6104a65f198460080261048b565b1980831691505092915050565b5f6104be8383610497565b9150826002028217905092915050565b6104d782610291565b67ffffffffffffffff8111156104f0576104ef61029b565b5b6104fa82546102f5565b610505828285610445565b5f60209050601f831160018114610536575f8415610524578287015190505b61052e85826104b3565b865550610595565b601f19841661054486610325565b5f5b8281101561056b57848901518255600182019150602085019450602081019050610546565b868310156105885784890151610584601f891682610497565b8355505b6001600288020188555050505b505050505050565b6105a68161022b565b82525050565b5f6020820190506105bf5f83018461059d565b92915050565b612855806105d25f395ff3fe608060405234801561000f575f5ffd5b5060043610610135575f3560e01c80635de6dc55116100b657806395d89b411161007a57806395d89b4114610371578063a22cb4651461038f578063b88d4fde146103ab578063c87b56dd146103c7578063e985e9c5146103f7578063f2fde38b1461042757610135565b80635de6dc55146102b95780636352211e146102e957806370a0823114610319578063715018a6146103495780638da5cb5b1461035357610135565b806323b872dd116100fd57806323b872dd146101f15780632f745c591461020d57806340d097c31461023d57806342842e0e1461026d5780634f6ccce71461028957610135565b806301ffc9a71461013957806306fdde0314610169578063081812fc14610187578063095ea7b3146101b757806318160ddd146101d3575b5f5ffd5b610153600480360381019061014e9190611f28565b610443565b6040516101609190611f6d565b60405180910390f35b6101716104bc565b60405161017e9190611ff6565b60405180910390f35b6101a1600480360381019061019c9190612049565b61054b565b6040516101ae91906120b3565b60405180910390f35b6101d160048036038101906101cc91906120f6565b610566565b005b6101db61057c565b6040516101e89190612143565b60405180910390f35b61020b6004803603810190610206919061215c565b610588565b005b610227600480360381019061022291906120f6565b610687565b6040516102349190612143565b60405180910390f35b610257600480360381019061025291906121ac565b61072b565b6040516102649190612143565b60405180910390f35b6102876004803603810190610282919061215c565b610760565b005b6102a3600480360381019061029e9190612049565b61077f565b6040516102b09190612143565b60405180910390f35b6102d360048036038101906102ce91906121ac565b6107f1565b6040516102e0919061228e565b60405180910390f35b61030360048036038101906102fe9190612049565b610899565b60405161031091906120b3565b60405180910390f35b610333600480360381019061032e91906121ac565b6108aa565b6040516103409190612143565b60405180910390f35b610351610960565b005b61035b610973565b60405161036891906120b3565b60405180910390f35b61037961099b565b6040516103869190611ff6565b60405180910390f35b6103a960048036038101906103a491906122d8565b610a2b565b005b6103c560048036038101906103c09190612442565b610a41565b005b6103e160048036038101906103dc9190612049565b610a66565b6040516103ee9190611ff6565b60405180910390f35b610411600480360381019061040c91906124c2565b610acc565b60405161041e9190611f6d565b60405180910390f35b610441600480360381019061043c91906121ac565b610b5a565b005b5f7f780e9d63000000000000000000000000000000000000000000000000000000007bffffffffffffffffffffffffffffffffffffffffffffffffffffffff1916827bffffffffffffffffffffffffffffffffffffffffffffffffffffffff191614806104b557506104b482610bde565b5b9050919050565b60605f80546104ca9061252d565b80601f01602080910402602001604051908101604052809291908181526020018280546104f69061252d565b80156105415780601f1061051857610100808354040283529160200191610541565b820191905f5260205f20905b81548152906001019060200180831161052457829003601f168201915b5050505050905090565b5f61055582610cbf565b5061055f82610d45565b9050919050565b6105788282610573610d7e565b610d85565b5050565b5f600880549050905090565b5f73ffffffffffffffffffffffffffffffffffffffff168273ffffffffffffffffffffffffffffffffffffffff16036105f8575f6040517f64a0ae920000000000000000000000000000000000000000000000000000000081526004016105ef91906120b3565b60405180910390fd5b5f61060b8383610606610d7e565b610d97565b90508373ffffffffffffffffffffffffffffffffffffffff168173ffffffffffffffffffffffffffffffffffffffff1614610681578382826040517f64283d7b0000000000000000000000000000000000000000000000000000000081526004016106789392919061255d565b60405180910390fd5b50505050565b5f610691836108aa565b82106106d65782826040517fa57d13dc0000000000000000000000000000000000000000000000000000000081526004016106cd929190612592565b60405180910390fd5b60065f8473ffffffffffffffffffffffffffffffffffffffff1673ffffffffffffffffffffffffffffffffffffffff1681526020019081526020015f205f8381526020019081526020015f2054905092915050565b5f610734610eb1565b5f600b5f815480929190610747906125e6565b9190505590506107578382610f38565b80915050919050565b61077a83838360405180602001604052805f815250610a41565b505050565b5f61078861057c565b82106107cd575f826040517fa57d13dc0000000000000000000000000000000000000000000000000000000081526004016107c4929190612592565b60405180910390fd5b600882815481106107e1576107e061262d565b5b905f5260205f2001549050919050565b60605f6107fd836108aa565b90505f8167ffffffffffffffff81111561081a5761081961231e565b5b6040519080825280602002602001820160405280156108485781602001602082028036833780820191505090505b5090505f5f90505b8281101561088e576108628582610687565b8282815181106108755761087461262d565b5b6020026020010181815250508080600101915050610850565b508092505050919050565b5f6108a382610cbf565b9050919050565b5f5f73ffffffffffffffffffffffffffffffffffffffff168273ffffffffffffffffffffffffffffffffffffffff160361091b575f6040517f89c62b6400000000000000000000000000000000000000000000000000000000815260040161091291906120b3565b60405180910390fd5b60035f8373ffffffffffffffffffffffffffffffffffffffff1673ffffffffffffffffffffffffffffffffffffffff1681526020019081526020015f20549050919050565b610968610eb1565b6109715f610f55565b565b5f600a5f9054906101000a900473ffffffffffffffffffffffffffffffffffffffff16905090565b6060600180546109aa9061252d565b80601f01602080910402602001604051908101604052809291908181526020018280546109d69061252d565b8015610a215780601f106109f857610100808354040283529160200191610a21565b820191905f5260205f20905b815481529060010190602001808311610a0457829003601f168201915b5050505050905090565b610a3d610a36610d7e565b8383611018565b5050565b610a4c848484610588565b610a60610a57610d7e565b85858585611181565b50505050565b6060610a7182610cbf565b505f610a7b61132d565b90505f815111610a995760405180602001604052805f815250610ac4565b80610aa384611343565b604051602001610ab4929190612694565b6040516020818303038152906040525b915050919050565b5f60055f8473ffffffffffffffffffffffffffffffffffffffff1673ffffffffffffffffffffffffffffffffffffffff1681526020019081526020015f205f8373ffffffffffffffffffffffffffffffffffffffff1673ffffffffffffffffffffffffffffffffffffffff1681526020019081526020015f205f9054906101000a900460ff16905092915050565b610b62610eb1565b5f73ffffffffffffffffffffffffffffffffffffffff168173ffffffffffffffffffffffffffffffffffffffff1603610bd2575f6040517f1e4fbdf7000000000000000000000000000000000000000000000000000000008152600401610bc991906120b3565b60405180910390fd5b610bdb81610f55565b50565b5f7f80ac58cd000000000000000000000000000000000000000000000000000000007bffffffffffffffffffffffffffffffffffffffffffffffffffffffff1916827bffffffffffffffffffffffffffffffffffffffffffffffffffffffff19161480610ca857507f5b5e139f000000000000000000000000000000000000000000000000000000007bffffffffffffffffffffffffffffffffffffffffffffffffffffffff1916827bffffffffffffffffffffffffffffffffffffffffffffffffffffffff1916145b80610cb85750610cb78261140d565b5b9050919050565b5f5f610cca83611476565b90505f73ffffffffffffffffffffffffffffffffffffffff168173ffffffffffffffffffffffffffffffffffffffff1603610d3c57826040517f7e273289000000000000000000000000000000000000000000000000000000008152600401610d339190612143565b60405180910390fd5b80915050919050565b5f60045f8381526020019081526020015f205f9054906101000a900473ffffffffffffffffffffffffffffffffffffffff169050919050565b5f33905090565b610d9283838360016114af565b505050565b5f5f610da485858561166e565b90505f73ffffffffffffffffffffffffffffffffffffffff168173ffffffffffffffffffffffffffffffffffffffff1603610de757610de284611879565b610e26565b8473ffffffffffffffffffffffffffffffffffffffff168173ffffffffffffffffffffffffffffffffffffffff1614610e2557610e2481856118bd565b5b5b5f73ffffffffffffffffffffffffffffffffffffffff168573ffffffffffffffffffffffffffffffffffffffff1603610e6757610e6284611994565b610ea6565b8473ffffffffffffffffffffffffffffffffffffffff168173ffffffffffffffffffffffffffffffffffffffff1614610ea557610ea48585611a54565b5b5b809150509392505050565b610eb9610d7e565b73ffffffffffffffffffffffffffffffffffffffff16610ed7610973565b73ffffffffffffffffffffffffffffffffffffffff1614610f3657610efa610d7e565b6040517f118cdaa7000000000000000000000000000000000000000000000000000000008152600401610f2d91906120b3565b60405180910390fd5b565b610f51828260405180602001604052805f815250611ad8565b5050565b5f600a5f9054906101000a900473ffffffffffffffffffffffffffffffffffffffff16905081600a5f6101000a81548173ffffffffffffffffffffffffffffffffffffffff021916908373ffffffffffffffffffffffffffffffffffffffff1602179055508173ffffffffffffffffffffffffffffffffffffffff168173ffffffffffffffffffffffffffffffffffffffff167f8be0079c531659141344cd1fd0a4f28419497f9722a3daafe3b4186f6b6457e060405160405180910390a35050565b5f73ffffffffffffffffffffffffffffffffffffffff168273ffffffffffffffffffffffffffffffffffffffff160361108857816040517f5b08ba1800000000000000000000000000000000000000000000000000000000815260040161107f91906120b3565b60405180910390fd5b8060055f8573ffffffffffffffffffffffffffffffffffffffff1673ffffffffffffffffffffffffffffffffffffffff1681526020019081526020015f205f8473ffffffffffffffffffffffffffffffffffffffff1673ffffffffffffffffffffffffffffffffffffffff1681526020019081526020015f205f6101000a81548160ff0219169083151502179055508173ffffffffffffffffffffffffffffffffffffffff168373ffffffffffffffffffffffffffffffffffffffff167f17307eab39ab6107e8899845ad3d59bd9653f200f220920489ca2b5937696c31836040516111749190611f6d565b60405180910390a3505050565b5f8373ffffffffffffffffffffffffffffffffffffffff163b1115611326578273ffffffffffffffffffffffffffffffffffffffff1663150b7a02868685856040518563ffffffff1660e01b81526004016111df9493929190612709565b6020604051808303815f875af192505050801561121a57506040513d601f19601f820116820180604052508101906112179190612767565b60015b61129b573d805f8114611248576040519150601f19603f3d011682016040523d82523d5f602084013e61124d565b606091505b505f81510361129357836040517f64a0ae9200000000000000000000000000000000000000000000000000000000815260040161128a91906120b3565b60405180910390fd5b805160208201fd5b63150b7a0260e01b7bffffffffffffffffffffffffffffffffffffffffffffffffffffffff1916817bffffffffffffffffffffffffffffffffffffffffffffffffffffffff19161461132457836040517f64a0ae9200000000000000000000000000000000000000000000000000000000815260040161131b91906120b3565b60405180910390fd5b505b5050505050565b606060405180602001604052805f815250905090565b60605f600161135184611afb565b0190505f8167ffffffffffffffff81111561136f5761136e61231e565b5b6040519080825280601f01601f1916602001820160405280156113a15781602001600182028036833780820191505090505b5090505f82602083010190505b600115611402578080600190039150507f3031323334353637383961626364656600000000000000000000000000000000600a86061a8153600a85816113f7576113f6612792565b5b0494505f85036113ae575b819350505050919050565b5f7f01ffc9a7000000000000000000000000000000000000000000000000000000007bffffffffffffffffffffffffffffffffffffffffffffffffffffffff1916827bffffffffffffffffffffffffffffffffffffffffffffffffffffffff1916149050919050565b5f60025f8381526020019081526020015f205f9054906101000a900473ffffffffffffffffffffffffffffffffffffffff169050919050565b80806114e757505f73ffffffffffffffffffffffffffffffffffffffff168273ffffffffffffffffffffffffffffffffffffffff1614155b15611619575f6114f684610cbf565b90505f73ffffffffffffffffffffffffffffffffffffffff168373ffffffffffffffffffffffffffffffffffffffff161415801561156057508273ffffffffffffffffffffffffffffffffffffffff168173ffffffffffffffffffffffffffffffffffffffff1614155b801561157357506115718184610acc565b155b156115b557826040517fa9fbf51f0000000000000000000000000000000000000000000000000000000081526004016115ac91906120b3565b60405180910390fd5b811561161757838573ffffffffffffffffffffffffffffffffffffffff168273ffffffffffffffffffffffffffffffffffffffff167f8c5be1e5ebec7d5bd14f71427d1e84f3dd0314c0f7b2291e5b200ac8c7c3b92560405160405180910390a45b505b8360045f8581526020019081526020015f205f6101000a81548173ffffffffffffffffffffffffffffffffffffffff021916908373ffffffffffffffffffffffffffffffffffffffff16021790555050505050565b5f5f61167984611476565b90505f73ffffffffffffffffffffffffffffffffffffffff168373ffffffffffffffffffffffffffffffffffffffff16146116ba576116b9818486611c4c565b5b5f73ffffffffffffffffffffffffffffffffffffffff168173ffffffffffffffffffffffffffffffffffffffff1614611745576116f95f855f5f6114af565b600160035f8373ffffffffffffffffffffffffffffffffffffffff1673ffffffffffffffffffffffffffffffffffffffff1681526020019081526020015f205f82825403925050819055505b5f73ffffffffffffffffffffffffffffffffffffffff168573ffffffffffffffffffffffffffffffffffffffff16146117c457600160035f8773ffffffffffffffffffffffffffffffffffffffff1673ffffffffffffffffffffffffffffffffffffffff1681526020019081526020015f205f82825401925050819055505b8460025f8681526020019081526020015f205f6101000a81548173ffffffffffffffffffffffffffffffffffffffff021916908373ffffffffffffffffffffffffffffffffffffffff160217905550838573ffffffffffffffffffffffffffffffffffffffff168273ffffffffffffffffffffffffffffffffffffffff167fddf252ad1be2c89b69c2b068fc378daa952ba7f163c4a11628f55a4df523b3ef60405160405180910390a4809150509392505050565b60088054905060095f8381526020019081526020015f2081905550600881908060018154018082558091505060019003905f5260205f20015f909190919091505550565b5f6118c7836108aa565b90505f60075f8481526020019081526020015f205490505f60065f8673ffffffffffffffffffffffffffffffffffffffff1673ffffffffffffffffffffffffffffffffffffffff1681526020019081526020015f209050828214611966575f815f8581526020019081526020015f2054905080825f8581526020019081526020015f20819055508260075f8381526020019081526020015f2081905550505b60075f8581526020019081526020015f205f9055805f8481526020019081526020015f205f90555050505050565b5f60016008805490506119a791906127bf565b90505f60095f8481526020019081526020015f205490505f600883815481106119d3576119d261262d565b5b905f5260205f200154905080600883815481106119f3576119f261262d565b5b905f5260205f2001819055508160095f8381526020019081526020015f208190555060095f8581526020019081526020015f205f90556008805480611a3b57611a3a6127f2565b5b600190038181905f5260205f20015f9055905550505050565b5f6001611a60846108aa565b611a6a91906127bf565b90508160065f8573ffffffffffffffffffffffffffffffffffffffff1673ffffffffffffffffffffffffffffffffffffffff1681526020019081526020015f205f8381526020019081526020015f20819055508060075f8481526020019081526020015f2081905550505050565b611ae28383611d0f565b611af6611aed610d7e565b5f858585611181565b505050565b5f5f5f90507a184f03e93ff9f4daa797ed6e38ed64bf6a1f0100000000000000008310611b57577a184f03e93ff9f4daa797ed6e38ed64bf6a1f0100000000000000008381611b4d57611b4c612792565b5b0492506040810190505b6d04ee2d6d415b85acef81000000008310611b94576d04ee2d6d415b85acef81000000008381611b8a57611b89612792565b5b0492506020810190505b662386f26fc100008310611bc357662386f26fc100008381611bb957611bb8612792565b5b0492506010810190505b6305f5e1008310611bec576305f5e1008381611be257611be1612792565b5b0492506008810190505b6127108310611c11576127108381611c0757611c06612792565b5b0492506004810190505b60648310611c345760648381611c2a57611c29612792565b5b0492506002810190505b600a8310611c43576001810190505b80915050919050565b611c57838383611e02565b611d0a575f73ffffffffffffffffffffffffffffffffffffffff168373ffffffffffffffffffffffffffffffffffffffff1603611ccb57806040517f7e273289000000000000000000000000000000000000000000000000000000008152600401611cc29190612143565b60405180910390fd5b81816040517f177e802f000000000000000000000000000000000000000000000000000000008152600401611d01929190612592565b60405180910390fd5b505050565b5f73ffffffffffffffffffffffffffffffffffffffff168273ffffffffffffffffffffffffffffffffffffffff1603611d7f575f6040517f64a0ae92000000000000000000000000000000000000000000000000000000008152600401611d7691906120b3565b60405180910390fd5b5f611d8b83835f610d97565b90505f73ffffffffffffffffffffffffffffffffffffffff168173ffffffffffffffffffffffffffffffffffffffff1614611dfd575f6040517f73c6ac6e000000000000000000000000000000000000000000000000000000008152600401611df491906120b3565b60405180910390fd5b505050565b5f5f73ffffffffffffffffffffffffffffffffffffffff168373ffffffffffffffffffffffffffffffffffffffff1614158015611eb957508273ffffffffffffffffffffffffffffffffffffffff168473ffffffffffffffffffffffffffffffffffffffff161480611e7a5750611e798484610acc565b5b80611eb857508273ffffffffffffffffffffffffffffffffffffffff16611ea083610d45565b73ffffffffffffffffffffffffffffffffffffffff16145b5b90509392505050565b5f604051905090565b5f5ffd5b5f5ffd5b5f7fffffffff0000000000000000000000000000000000000000000000000000000082169050919050565b611f0781611ed3565b8114611f11575f5ffd5b50565b5f81359050611f2281611efe565b92915050565b5f60208284031215611f3d57611f3c611ecb565b5b5f611f4a84828501611f14565b91505092915050565b5f8115159050919050565b611f6781611f53565b82525050565b5f602082019050611f805f830184611f5e565b92915050565b5f81519050919050565b5f82825260208201905092915050565b8281835e5f83830152505050565b5f601f19601f8301169050919050565b5f611fc882611f86565b611fd28185611f90565b9350611fe2818560208601611fa0565b611feb81611fae565b840191505092915050565b5f6020820190508181035f83015261200e8184611fbe565b905092915050565b5f819050919050565b61202881612016565b8114612032575f5ffd5b50565b5f813590506120438161201f565b92915050565b5f6020828403121561205e5761205d611ecb565b5b5f61206b84828501612035565b91505092915050565b5f73ffffffffffffffffffffffffffffffffffffffff82169050919050565b5f61209d82612074565b9050919050565b6120ad81612093565b82525050565b5f6020820190506120c65f8301846120a4565b92915050565b6120d581612093565b81146120df575f5ffd5b50565b5f813590506120f0816120cc565b92915050565b5f5f6040838503121561210c5761210b611ecb565b5b5f612119858286016120e2565b925050602061212a85828601612035565b9150509250929050565b61213d81612016565b82525050565b5f6020820190506121565f830184612134565b92915050565b5f5f5f6060848603121561217357612172611ecb565b5b5f612180868287016120e2565b9350506020612191868287016120e2565b92505060406121a286828701612035565b9150509250925092565b5f602082840312156121c1576121c0611ecb565b5b5f6121ce848285016120e2565b91505092915050565b5f81519050919050565b5f82825260208201905092915050565b5f819050602082019050919050565b61220981612016565b82525050565b5f61221a8383612200565b60208301905092915050565b5f602082019050919050565b5f61223c826121d7565b61224681856121e1565b9350612251836121f1565b805f5b83811015612281578151612268888261220f565b975061227383612226565b925050600181019050612254565b5085935050505092915050565b5f6020820190508181035f8301526122a68184612232565b905092915050565b6122b781611f53565b81146122c1575f5ffd5b50565b5f813590506122d2816122ae565b92915050565b5f5f604083850312156122ee576122ed611ecb565b5b5f6122fb858286016120e2565b925050602061230c858286016122c4565b9150509250929050565b5f5ffd5b5f5ffd5b7f4e487b71000000000000000000000000000000000000000000000000000000005f52604160045260245ffd5b61235482611fae565b810181811067ffffffffffffffff821117156123735761237261231e565b5b80604052505050565b5f612385611ec2565b9050612391828261234b565b919050565b5f67ffffffffffffffff8211156123b0576123af61231e565b5b6123b982611fae565b9050602081019050919050565b828183375f83830152505050565b5f6123e66123e184612396565b61237c565b9050828152602081018484840111156124025761240161231a565b5b61240d8482856123c6565b509392505050565b5f82601f83011261242957612428612316565b5b81356124398482602086016123d4565b91505092915050565b5f5f5f5f6080858703121561245a57612459611ecb565b5b5f612467878288016120e2565b9450506020612478878288016120e2565b935050604061248987828801612035565b925050606085013567ffffffffffffffff8111156124aa576124a9611ecf565b5b6124b687828801612415565b91505092959194509250565b5f5f604083850312156124d8576124d7611ecb565b5b5f6124e5858286016120e2565b92505060206124f6858286016120e2565b9150509250929050565b7f4e487b71000000000000000000000000000000000000000000000000000000005f52602260045260245ffd5b5f600282049050600182168061254457607f821691505b60208210810361255757612556612500565b5b50919050565b5f6060820190506125705f8301866120a4565b61257d6020830185612134565b61258a60408301846120a4565b949350505050565b5f6040820190506125a55f8301856120a4565b6125b26020830184612134565b9392505050565b7f4e487b71000000000000000000000000000000000000000000000000000000005f52601160045260245ffd5b5f6125f082612016565b91507fffffffffffffffffffffffffffffffffffffffffffffffffffffffffffffffff8203612622576126216125b9565b5b600182019050919050565b7f4e487b71000000000000000000000000000000000000000000000000000000005f52603260045260245ffd5b5f81905092915050565b5f61266e82611f86565b612678818561265a565b9350612688818560208601611fa0565b80840191505092915050565b5f61269f8285612664565b91506126ab8284612664565b91508190509392505050565b5f81519050919050565b5f82825260208201905092915050565b5f6126db826126b7565b6126e581856126c1565b93506126f5818560208601611fa0565b6126fe81611fae565b840191505092915050565b5f60808201905061271c5f8301876120a4565b61272960208301866120a4565b6127366040830185612134565b818103606083015261274881846126d1565b905095945050505050565b5f8151905061276181611efe565b92915050565b5f6020828403121561277c5761277b611ecb565b5b5f61278984828501612753565b91505092915050565b7f4e487b71000000000000000000000000000000000000000000000000000000005f52601260045260245ffd5b5f6127c982612016565b91506127d483612016565b92508282039050818111156127ec576127eb6125b9565b5b92915050565b7f4e487b71000000000000000000000000000000000000000000000000000000005f52603160045260245ffdfea2646970667358221220a1cd502a6242e9179301917812a9c2dfbd732c8d0632df9d119bb49096bbb58964736f6c634300081d0033","linkReferences":{}},"methodIdentifiers":{"approve(address,uint256)":"095ea7b3","balanceOf(address)":"70a08231","getApproved(uint256)":"081812fc","getTokensOfOwner(address)":"5de6dc55","isApprovedForAll(address,address)":"e985e9c5","name()":"06fdde03","owner()":"8da5cb5b","ownerOf(uint256)":"6352211e","renounceOwnership()":"715018a6","safeMint(address)":"40d097c3","safeTransferFrom(address,address,uint256)":"42842e0e","safeTransferFrom(address,address,uint256,bytes)":"b88d4fde","setApprovalForAll(address,bool)":"a22cb465","supportsInterface(bytes4)":"01ffc9a7","symbol()":"95d89b41","tokenByIndex(uint256)":"4f6ccce7","tokenOfOwnerByIndex(address,uint256)":"2f745c59","tokenURI(uint256)":"c87b56dd","totalSupply()":"18160ddd","transferFrom(address,address,uint256)":"23b872dd","transferOwnership(address)":"f2fde38b"},"id":37}