{
    "abi": [
        {
            "type": "function",
            "name": "decrement",
            "inputs": [],
            "outputs": [],
            "stateMutability": "nonpayable"
        },
        {
            "type": "function",
            "name": "increment",
            "inputs": [],
            "outputs": [],
            "stateMutability": "nonpayable"
        },
        {
            "type": "function",
            "name": "number",
            "inputs": [],
            "outputs": [
                {
                    "name": "",
                    "type": "uint256",
                    "internalType": "uint256"
                }
            ],
            "stateMutability": "view"
        },
        {
            "type": "function",
            "name": "setNumber",
            "inputs": [
                {
                    "name": "newNumber",
                    "type": "uint256",
                    "internalType": "uint256"
                }
            ],
            "outputs": [],
            "stateMutability": "nonpayable"
        }
    ],
    "bytecode": {
        "object": "0x6080604052348015600e575f5ffd5b506102358061001c5f395ff3fe608060405234801561000f575f5ffd5b506004361061004a575f3560e01c80632baeceb71461004e5780633fb5c1cb146100585780638381f58a14610074578063d09de08a14610092575b5f5ffd5b61005661009c565b005b610072600480360381019061006d9190610111565b6100b4565b005b61007c6100bd565b604051610089919061014b565b60405180910390f35b61009a6100c2565b005b5f5f8154809291906100ad90610191565b9190505550565b805f8190555050565b5f5481565b5f5f8154809291906100d3906101b8565b9190505550565b5f5ffd5b5f819050919050565b6100f0816100de565b81146100fa575f5ffd5b50565b5f8135905061010b816100e7565b92915050565b5f60208284031215610126576101256100da565b5b5f610133848285016100fd565b91505092915050565b610145816100de565b82525050565b5f60208201905061015e5f83018461013c565b92915050565b7f4e487b71000000000000000000000000000000000000000000000000000000005f52601160045260245ffd5b5f61019b826100de565b91505f82036101ad576101ac610164565b5b600182039050919050565b5f6101c2826100de565b91507fffffffffffffffffffffffffffffffffffffffffffffffffffffffffffffffff82036101f4576101f3610164565b5b60018201905091905056fea2646970667358221220178fcbbdaf839c9e5912be6c8e9eb8c6d3066dfef2c6e877894eb375cb24cdd464736f6c634300081d0033",
        "linkReferences": {}
    },
    "methodIdentifiers": {
        "decrement()": "2baeceb7",
        "increment()": "d09de08a",
        "number()": "8381f58a",
        "setNumber(uint256)": "3fb5c1cb"
    },
    "id": 37
}